:060000000A128A110C280F
:10000800FE00030EF1000A08F2000A128A11D22833
:100018000A128A110F28F60183010A128A1114287C
:100028000A128A1183200A128A11831203139F1855
:100038001E281F2820289F14851405150430F50054
:100048003D30F400F40B2628F50B26282B288312C4
:1000580003138510FF30930083160313141C3528EF
:100068003628302883120313851405150430F5004B
:100078003D30F400F40B3E28F50B3E28432883124C
:100088000313851083160313141C4B284C28462889
:100098008312031313088800051585140430F5002E
:1000A8003D30F400F40B5628F50B56285B288312D4
:1000B800031305117608930083160313141C65288F
:1000C8006628602883120313051585140430F5008B
:1000D8003D30F400F40B6E28F50B6E28732883125C
:1000E800031305110430F5003D30F400F40B7A28B1
:1000F800F50B7A287F2819280A128A110C28013052
:1001080083160317880089010130831603138500BD
:1001180083120313850183160313860183120313C5
:10012800860183160313880183120313880183163B
:1001380003130F088F3940388F000F143F30831294
:1001480003139F05831603131F129F16C3308312D0
:1001580003139F05831603139F13831203131F149E
:100168000330F300F30BB62810308316031387000F
:10017800831203138701F030940514129416831622
:1001880003131417941776088312031393000C13A0
:10019800831603130C178B170B170800831203130E
:1001A8000C1FD728D828E6281F0CF000700C0F3930
:1001B800003A031DE028E128E5281E08F000700831
:1001C800F6000C1372088A00710E8300FE0E7E0E74
:0201D80009001C
:08400000FF3FFF3FFF3FFF3FC0
:04400E00D420FF3F7C
:00000001FF
